:020000040800F2
:100000000006002045010008791400087B14000850
:100010007F14000883140008871400080000000003
:100020000000000000000000000000008B14000829
:100030008D140008000000008F14000891140008BF
:100040005F0100085F0100085F0100085F01000810
:100050005F0100085F0100085F0100085F01000800
:100060005F0100085F0100085F0100085F010008F0
:100070005F0100085F0100085F0100085F010008E0
:100080005F0100085F0100085F0100085F010008D0
:100090005F0100085F0100085F0100085F010008C0
:1000A0005F0100085F0100085F0100085F010008B0
:1000B0005F0100085F0100085F0100085F010008A0
:1000C0005F0100085F0100085F0100085F01000890
:1000D0005F0100085F0100085F0100085F01000880
:1000E0005F010008931400085F0100085F01000829
:1000F0005F0100085F0100085F0100085F01000860
:100100005F0100085F0100085F0100085F0100084F
:100110005F0100085F0100085F0100085F0100083F
:100120005F0100085F0100085F0100085F0100082F
:10013000DFF80CD002F0CAFA004800475B13000851
:10014000000600200648804706480047FEE7FEE715
:10015000FEE7FEE7FEE7FEE7FEE7FEE7FEE7FEE777
:1001600047020008310100080CB500200190009002
:100170006C48006840F480306A49086000BF6948F4
:10018000006800F4003000900198401C0190009835
:1001900018B90198B0F5A06FF1D16248006800F479
:1001A000003010B10120009001E000200090009884
:1001B000012843D15C48006840F010005A490860AB
:1001C0000846006820F0030008600846006840F018
:1001D0000200086053484068524948600846406839
:1001E00048600846406840F48060486008464068BF
:1001F00020F47C1048600846406840F4E8104860ED
:100200000846006840F08070086000BF45480068FC
:1002100000F000700028F9D04248406820F0030048
:10022000404948600846406840F00200486000BF0E
:100230003C48406800F00C000828F9D10CBD10B50E
:10024000FFF792FF10BD10B53648006840F001007E
:1002500034490860084640683449084031494860DC
:1002600008460068324908402E4908600846006880
:1002700020F4802008600846406820F4FE004860B2
:100280004FF41F008860FFF7DAFF4FF00060294944
:10029000086010BD10B5002100200022214B5B68D2
:1002A00003F00C0121B1042906D0082928D107E068
:1002B000214B224C236027E01F4B204C236023E07E
:1002C000184B5B6803F47010164B5B6803F48032C4
:1002D000022303EB904022B9194B4343174C236090
:1002E0000DE0104B5B6803F4003323B1144B434320
:1002F000124C236003E0104B4343104C236003E097
:100300000D4B0E4C236000BF00BF064B5B68C3F370
:1003100003130C4CE15C094B1B68CB40074C23607A
:1003200010BD000000100240002002400000FFF855
:10033000FFFFF6FE08ED00E000127A00000000204A
:1003400000093D000400002031490143314A116099
:10035000704770B5002100230F22C47804B32D4CE0
:10036000246804F4E064C4F5E064210AC1F10403E4
:10037000CA40447804FA03F1847814402143090107
:10038000254C0678A155047804F01F050124AC40E3
:1003900005786D11AD0005F1E025C5F8004109E0D3
:1003A000047804F01F050124AC401C4D067876113A
:1003B00045F8264070BD1A4A0A400243154B1B1FE0
:1003C0001A60704739B1134A121D12680243114B6B
:1003D0001B1D1A6006E00F4A121D126882430D4B66
:1003E0001B1D1A607047042808D14FF0E0210969ED
:1003F00041F004014FF0E022116107E04FF0E021ED
:10040000096921F004014FF0E022116170470000FA
:100410000000FA050CED00E000E400E080E100E0FF
:1004200080FFFF1F10B5012000F0A2FC002000F0AB
:100430009FFC10BD2A49086070472949091F0860C0
:100440007047274984310860704701460020254ADB
:1004500010884FF67F4210400843224A10807047B0
:10046000014600201F4A10884FF680721040084352
:100470001C4A1080704708B500220092194A2C3A95
:100480000092009A02440092009A116008BD08B5DB
:1004900001460020009013482C3800900098084432
:1004A00000900098008808BD0D489C300068C0B2DC
:1004B00070470C480830008840F0010009490831B5
:1004C000088070470648A0300068C0B270470548F1
:1004D0000830008840F00200024908310880704767
:1004E00004860D422C6C0040002044490860091D20
:1004F0000860091D0860091D086041483F49143122
:100500000860704700213D498279002A3AD00A46A6
:10051000126803689A430B461A600A1D1268036842
:100520009A430B1D1A60027911440A6803681A4342
:100530000A60324A0832126803689A432F4B083324
:100540001A601A1D126803689A432C4B0C331A6008
:100550004279102A0ED11A1F126803681A43274BDA
:1005600008331A601A1D126803681A43234B0C33B0
:100570001A600DE02149427911440A6803681A4360
:100580000A6005E0027911440A6803689A430A6028
:1005900070470021016001710C21417100218171BE
:1005A00070471649103109680143144A103211602E
:1005B000704701460020114A143212680A400AB1FD
:1005C000012000E0002070470C491431086070479A
:1005D000014600200022094B1B6803EA0102074B79
:1005E00014331B680B4013B10AB1012000E0002056
:1005F0007047024914310860704700000004014050
:10060000FFFF0F0010B50446CC48844208D10121F9
:10061000042000F093FB0021042000F08FFB46E053
:10062000C748844208D10121082000F087FB00213F
:10063000082000F083FB3AE0C248844208D101213F
:10064000102000F07BFB0021102000F077FB2EE053
:10065000BD48844208D10121202000F06FFB002119
:10066000202000F06BFB22E0B848844208D1012131
:10067000402000F063FB0021402000F05FFB16E00B
:10068000B348844208D10121802000F057FB0021AB
:10069000802000F053FB0AE0AE48844207D10121DC
:1006A000801500F04BFB0021A01500F047FB10BDAA
:1006B00010B50121084600F041FB0021012000F0A7
:1006C0003DFB10BD2DE9F04102460025002600202B
:1006D00000230024002791F803C00CF00F0591F8C7
:1006E00003C00CF0100CBCF1000F03D091F802C055
:1006F0004CEA050591F800C0BCF1000F31D0146838
:1007000000202BE04FF0010C0CFA00F3B1F800C010
:100710000CEA03069E4220D183004FF00F0C0CFA26
:1007200003F7BC4305FA03FC4CEA040491F803C048
:10073000BCF1280F06D14FF0010C0CFA00FCC2F8F6
:1007400014C00AE091F803C0BCF1480F05D14FF086
:10075000010C0CFA00FCC2F810C0401C0828D1D3D0
:100760001460B1F800C0BCF1FF0F34DD5468002004
:100770002EE000F1080C4FF0010808FA0CF3B1F874
:1007800000C00CEA03069E4221D183004FF00F0CFB
:100790000CFA03F7BC4305FA03FC4CEA040491F895
:1007A00003C0BCF1280F05D100F1080C08FA0CF8C1
:1007B000C2F8148091F803C0BCF1480F07D100F1D2
:1007C000080C4FF0010808FA0CF8C2F81080401C21
:1007D0000828CED35460BDE8F0814FF6FF71018048
:1007E000022181700421C170704702460020936885
:1007F0000B400BB1012000E00020704701468868E3
:1008000080B2704702460020D3680B400BB1012034
:1008100000E0002070470146C86880B2704701615F
:100820007047416170470AB1016100E04161704762
:10083000C16070474FF480320A43826181618261F6
:1008400082698269704702460020434B18684FF660
:100850008073184040EA021008433F4B186070470D
:100860003E49C8617047F0B50A46002300240021C4
:10087000002500F00046B6F1004F02D1364EF16976
:1008800001E0354E7168C0F3034583B200F44016B1
:10089000B6F5401F08D121F070612F4E766826F022
:1008A00070662D4F7E6012E000F48016B6F5801F52
:1008B00006D1032606FA05F4A14341F0706106E073
:1008C000460D360103FA06F6B14341F0706122B1DC
:1008D000460D360103FA06F6314300F00046B6F144
:1008E000004F02D11C4EF16101E01B4E7160F0BD62
:1008F00030B500228B071C0F0F2303FA04F2164BAE
:1009000008338C1053F824309343134C08348D1063
:1009100044F8253023468C1053F824308C07240FDC
:1009200000FA04F423430C4C08348D1044F82530AD
:1009300030BD0A49DC310860704700000008014002
:10094000000C01400010014000140140001801405B
:10095000001C014000200140000001400000204236
:1009600010B50121080700F0F6F900214FF0805082
:1009700000F0F1F910BD2A49086270472849086162
:10098000704701460020274A106820F0E000084325
:10099000106070472249A0310860704710B50246C8
:1009A0000020204B186820F00300104318601E4BF5
:1009B0001B6843F004031C4C2360012901D130BFA4
:1009C00000E020BF184B1B6823F00403164C236083
:1009D00010BD1448006840F0040012490860084641
:1009E000006840F0020008600F48006840F0040012
:1009F0000D49086000BF00BF30BF704701460020AE
:100A0000084A52680A400AB1012000E000207047FD
:100A10000449096841EA8001024A116070470000F8
:100A200000000E420070004010ED00E0DF4800685A
:100A300040F00100DD49086008464068DC49084094
:100A4000DA49486008460068DA490840D749086032
:100A50000846006820F4802008600846406820F4BA
:100A6000FE0048604FF41F0088607047CF49096856
:100A700021F48031CD4A11601146096821F48021AA
:100A80001160B0F5803F03D0B0F5802F0ED106E0A5
:100A9000C649096841F48031C44A116007E0C3497E
:100AA000096841F4A021C14A116000E000BF00BF05
:100AB000704710B501460022002300204A11012A88
:100AC00002D1BA4C236806E0022A02D1B74C236A4D
:100AD00001E0B64C636A01F01F02012494401C40FF
:100AE0000CB1012000E0002010BD38B500200090BE
:100AF0000024002500BF3120FFF7DBFF05460098EA
:100B0000401C00900098B0F5A06F01D0002DF2D0ED
:100B10003120FFF7CEFF08B1012400E00024204679
:100B200038BD01460020A14A106820F0F80040EAD4
:100B3000C10010607047A04908607047024600205D
:100B40009A4B586820F47C1042EA01031843974BF3
:100B50005860704798490866704701460020934ADC
:100B6000506820F003000843506070478F48406889
:100B700000F00C007047014600208C4A506820F0BD
:100B8000F00008435060704701460020874A5068D3
:100B900020F4E06008435060704701460020834A1B
:100BA000506820F4605040EAC1005060704729B19D
:100BB0007E4A527A02437D4B5A7204E07B4A527A53
:100BC00082437A4B5A7270477B49D831086070472C
:100BD00001460020754A506820F4404008435060A8
:100BE00070470021714A20321170704A82F820103B
:100BF000012802D004280AD104E001216B4A2032E6
:100C0000117005E00521694A2032117000E000BF33
:100C100000BF70476949086070476449096A014329
:100C2000624A11627047654944390860704730B5BF
:100C300000210022002400235C4D6D6805F00C01AA
:100C400021B1042905D0082923D105E05C4D0560B8
:100C500022E05B4D05601FE0544D6D6805F4701295
:100C6000524D6D6805F48034022505EB92421CB9A3
:100C7000544D554305600BE04C4D6D6805F400354F
:100C80001DB1504D5543056002E04D4D5543056083
:100C900002E04B4D056000BF00BF444D6D6805F09C
:100CA000F0010909484D6B5C0568DD4045603F4D2A
:100CB0006D6805F4E061090A434D6B5C4568DD40F1
:100CC00085603A4D6D6805F46051C90A3E4D6B5C14
:100CD0004568DD40C560354D6D6805F44041890BC0
:100CE0003A4D6B5CC568B5FBF3F5056130BD29B1C4
:100CF0002E4A526902432D4B5A6104E02B4A526935
:100D000082432A4B5A61704729B1284A92690243AB
:100D1000264B9A6104E0254A92698243234B9A61EB
:100D2000704729B1214AD2690243204BDA6104E0BD
:100D30001E4AD26982431D4BDA61704729B11B4AB2
:100D4000D2680243194BDA6004E0184AD268824341
:100D5000164BDA60704729B1144A12690243134BEB
:100D60001A6104E0114A12698243104B1A617047FC
:100D700012494039086070470F49C86470470B49F1
:100D8000C87170470948406A40F08070074948625E
:100D9000704701460020054A92680A400AB10120C6
:100DA00000E000207047014988727047001002403F
:100DB0000000FFF8FFFFF6FE0000424280044242BE
:100DC00000127A0000093D001400002024000020D9
:100DD00029B1504A128802434E4B1A8004E04D4A12
:100DE000128882434B4B1A8070474A48001D008886
:100DF00040F010004749091D088070474548001D14
:100E000000884FF6EF7108404249091D088070477D
:100E1000002140481C300188001F008841EA004042
:100E2000704700B50246FFF7E0FF100C3949183152
:100E30000880091D0A80FFF7E1FF00BD00B50246EA
:100E4000FFF7D3FFC2F30340324908310880091D80
:100E50000A80FFF7D3FF00BD00B50246FFF7C5FFCC
:100E6000100C2C4920310880091D0A80FFF7C6FFAD
:100E700000BD00202749103109880907080B2549C2
:100E8000143109880843704700BF2248001D0088BC
:100E900000F020000028F8D070471E48001D008890
:100EA0004FF6F77108401B49091D088000BF19481B
:100EB000001D008800F008000028F8D070470146A7
:100EC0000020144A121D12880A400AB1012000E0D5
:100ED000002070470F49091D098881430D4A121DE2
:100EE00011807047014600200A4A121D12880A40EC
:100EF000D0B2084A12880A4012B108B1012000E0BD
:100F0000002070470349091D09888143014A121DC9
:100F1000118070470028004010B50446FB48844209
:100F200009D101218803FFF709FF00214FF4804018
:100F3000FFF704FF32E0F648844209D1012148045A
:100F4000FFF709FF00214FF40030FFF704FF25E011
:100F5000F048844209D101218804FFF7FCFE0021FA
:100F60004FF48020FFF7F7FE18E0EB48844209D1E8
:100F70000121C804FFF7EFFE00214FF40020FFF726
:100F8000EAFE0BE0E548844208D101210805FFF79D
:100F9000E2FE00214FF48010FFF7DDFE10BD2DE9C9
:100FA000F04786B005460E460024A24600BFA14683
:100FB0000027B08900B100BF2F462C8A4CF6FF7085
:100FC0000440F08804432C82AC894EF6F3100440B0
:100FD000B08831890843718908430443AC81AC8AE5
:100FE0004FF6FF400440B0890443AC8201A8FFF7EC
:100FF0001EFEC648874202D1DDF810A001E0DDF8F0
:101000000CA0A88900F4004040B10AEBCA0000EB34
:101010000A1031684900B0FBF1F807E00AEBCA009A
:1010200000EB0A1031688900B0FBF1F86420B8FBCE
:10103000F0F004012009642101FB1089A88900F463
:10104000004040B1322000EBC900B0FBF1F000F0ED
:101050000700044308E0322000EB09106421B0FBD4
:10106000F1F000F00F0004432C8106B0BDE8F087DA
:101070004FF41651016000218180C18001810C2153
:10108000418100218181704710B502460020108AFD
:101090004FF2FF0318400B884C8823438C8823436E
:1010A000CC8823431843108210BD00210180418069
:1010B0008180C180704721B1828942F400528281CF
:1010C00004E082894DF6FF731A4082817047F0B5C3
:1010D0000346002400260025002040F66A17B94286
:1010E00000D100BF1846C1F3421401F01F060127CA
:1010F00007FA06F5012C01D10C3004E0022C01D1D5
:10110000103000E014301AB107682F43076002E086
:101110000768AF430760F0BD1AB1838A0B4383822F
:1011200002E0838A8B4383827047028A4FF6F07312
:101130001A400282028A0A430282704782894FF271
:10114000FF731A40828182890A438281704721B1EC
:10115000828942F00202828104E082894FF6FD73A7
:101160001A4082817047028A4FF6DF731A4002826A
:10117000028A0A430282704721B1028A42F4804205
:10118000028204E0028A4BF6FF731A400282704723
:10119000C1F308028280704701468888C0F30800C6
:1011A0007047818941F0010181817047028BD2B281
:1011B0000283028B42EA012202837047028B02F40F
:1011C0007F420283028B0A430283704721B1828AE5
:1011D00042F02002828204E0828A4FF6DF731A40D6
:1011E0008282704721B1828A42F01002828204E03A
:1011F000828A4FF6EF731A408282704721B1828A49
:1012000042F00802828204E0828A4FF6F7731A40A5
:101210008282704721B1828942F40042828103E0D8
:101220008289C2F30E028281704721B1828A42F420
:101230000062828204E0828A4FF2FF731A40828247
:101240007047828A4FF6FB731A408282828A0A4371
:101250008282704721B1828A42F00202828204E0D7
:10126000828A4FF6FD731A40828270470246002040
:10127000B1F5007F00D100BF13880B400BB10120F6
:1012800000E00020704701F40072B2F5007F00D149
:1012900000BFCA430280704770B502460024002395
:1012A0000025002040F66A16B14200D100BFC1F30C
:1012B000421501F01F03012606FA03F3012D02D1A6
:1012C0009689334006E0022D02D1168A334001E0B0
:1012D000968A33400C12012606FA04F4168834402C
:1012E00013B10CB1012000E0002070BD10B5002248
:1012F000002340F66A14A14200D100BF0A12012463
:101300009440A3B2DC43048010BD000000380140CB
:101310000044004000480040004C004000500040A5
:1013200010B54FF48030FFF7A1FB00BF3120FFF76D
:10133000C0FB0028FAD00120FFF70CFC00BF3920C9
:10134000FFF7B7FB0028FAD00220FFF706FC00BF2A
:10135000FFF70CFC0828FBD110BD002400F0E2FFD1
:1013600001F08EF801F03CF801F06EF800F0D0FCCE
:1013700000F0F6FC74E03B480068002842D02020D2
:10138000394908600120091F08600220086037E021
:101390004FF4967524E04FF480713448FFF73FFA1C
:1013A000002400E0641C0F2CFCDB4FF480712F48FC
:1013B000FFF737FA002400E0641C40F6FF20844267
:1013C000FADB4FF400512A4801F025F8012807D133
:1013D00001022648FFF725FA00202249086003E0B1
:1013E000281EA5F10105D6D100BF1E48006800B92E
:1013F00007E0002400E0641C1E488442FBDB00BFC1
:10140000C6E700BF202018490860012008600220BC
:10141000091F086000BF0121144800F0FCFF0028EC
:10142000F9D020201049091F08600120091D08601B
:101430000220091F0860FFF7EBFC00F561652846F4
:10144000FFF70AFDFFF720FD20200749091F08606C
:10145000012008600220086001210846FFF79EFA7B
:1014600089E7000054010020140C014000080140ED
:1014700000100140FFFF0300704700BFFEE700BF00
:10148000FEE700BFFEE700BFFEE77047704770470A
:10149000704710B501200449086002200349086024
:1014A0000004FFF7A6F810BD54010020140C014001
:1014B00002460E2A70D2DFE802F086071019222BAE
:1014C000353F49535D67727CF748405C00F0080087
:1014D00008B9002070470120FCE7F348405C00F0A9
:1014E000040008B90020F5E70120F3E7EE48405C6E
:1014F00000F0020008B90020ECE70120EAE7EA4822
:10150000405C00F0010008B90020E3E70120E1E7BA
:10151000E54B481C185C00F0800008B90020D9E7B2
:101520000120D7E7E04B481C185C00F0400008B9E8
:101530000020CFE70120CDE7DB4B481C185C00F012
:10154000200008B90020C5E70120C3E7D64B481C9E
:10155000185C00F0100008B90020BBE70120B9E7D3
:10156000D14B481C185C00F0080008B90020B1E716
:101570000120AFE7CC4B481C185C00F0040008B910
:101580000020A7E70120A5E7C74B481C185C00F026
:10159000020010B900209DE715E001209AE7C24B38
:1015A000481C185C00F0010008B9002092E70120F7
:1015B00090E7BD4B881C185C00F0800008B9002043
:1015C00088E7012086E7002084E72DE9FF4F83B0FC
:1015D0000C461F466421039890FBF1F0C0B20190C5
:1015E000039890FBF1F201FB1200C5B20198132899
:1015F00006D00198142803D0002007B0BDE8F08F72
:101600000198142806D105F1630000EB40001FFA91
:1016100080F904E0681E00EB40001FFA80F9A2493F
:1016200009F10200085C00F0600A4FEA6A1A09F149
:101630000200085C00F01F0BBAF1010F04D1ABF1FE
:10164000010000F0FF0803E00BF11E0000F0FF08AE
:101650000A2C07DA601E9549095C05980844401E6B
:1016600086B208E0A4F10A00914931F810100598FB
:101670000844401E86B2022C08DDE91705EB917183
:101680008910A5EB810109B9701C86B246453EDB85
:10169000A6EB080086B201240120029000200090F1
:1016A00049460298FFF704FF10B94FF01D0A01E008
:1016B0004FF01E0A7C4911F80900C11700EB1171A7
:1016C0004FEA211B1DE0A6EB0A0086B20298401CDF
:1016D000C0B202905C4508D10098C043C0B20090EF
:1016E000009820B9601CC4B201E0601CC4B2494635
:1016F0000298FFF7DDFE10B94FF01D0A01E04FF030
:101700001E0A5645DFDA701CC0B205904FE0A8EB08
:10171000060000F0FF081DB963251320019001E0C9
:10172000681EC5B2A9F103001FFA80F90C245E49B6
:1017300011F80900C11700EB11714FEA211BBBF131
:10174000000F02D10C20029001E00D200290002039
:10175000009049460298FFF7ABFE10B94FF01D0A02
:1017600001E04FF01E0A1BE0A8EB0A0000F0FF08A2
:101770000298401EC0B20290009808B9601EC4B220
:101780005C4503D10098C043C0B20090494602981E
:10179000FFF78EFE10B94FF01D0A01E04FF01E0A50
:1017A000D045E1DCAAEB0800401CC0B205900198CE
:1017B00007F8010B07F8015B07F8014B0598387033
:1017C00001201AE710B50A46B0F5F86F09DBA0F55D
:1017D000F86398B23C2390FBF3F403FB1403D9B2F3
:1017E0000AE0C0F5F86398B23C2390FBF3F403FBE6
:1017F0001403C3F13C03D9B2117010BD10B500231E
:1018000005E011F8014B00F8014B5C1CA3B29342B8
:10181000F7DB10BD2DE9FC4105460E4617461C4678
:101820000F2224A12046FFF7E9FF01AB3A463146DB
:101830002846FFF7CAFE08B9BDE8FC819DF80520DF
:101840009DF8041001EBC10303EB011102EB8100D1
:101850006946FFF7B7FF9DF800000A2190FBF1F2FF
:1018600001FB1200174951F8208002224146204610
:10187000FFF7C4FF9DF800000C2190FBF1F201FB83
:101880001200114951F8208002224146A01CFFF7A6
:10189000B5FF9DF8060001281AD102220BA1A01D58
:1018A000FFF7ACFF1EE00000F42C0008FA2F000840
:1018B00004300008BCD7D7D3C4EAD5FDD4C2B3F5F1
:1018C000D2BB000088000020B0000020D5FD000041
:1018D0009DF80600401E8C4A52F820100222A01DDE
:1018E000FFF78CFF9DF807000A280EDD9DF8070022
:1018F0000A2190FBF1F0854951F8208002224146EF
:1019000004F10A00FFF77AFF05E0022280A104F14A
:101910000A00FFF773FF9DF80700401E0A2190FBA5
:10192000F1F201FB1200784951F820800222414671
:1019300004F10C00FFF762FF00BF7DE72DE9F041E5
:1019400004460D46B4F5FA6F03DB40F6020084420C
:1019500002DD0020BDE8F0810DB10C2D01DD00207D
:10196000F8E7681E4006010E0F2A01DB481CC1B2D1
:1019700008464FEAE17C01EB5C7C4FEAEC08A4F5F9
:10198000FA6C0CEB4C0CC444DFF8888118F80C603E
:101990004FEAE17C01EB5C7C4FEAEC0CA1EBCC0C58
:1019A00006FA0CFC0CF080075B48405C187097B19D
:1019B000012905D00B2903D0122901D0152907D1FF
:1019C00040F2FC70844203DA1878401C187002E080
:1019D0001878401E18700120BCE72DE9F843054631
:1019E000884614461E466B46224641462846FFF767
:1019F000A5FF10B90020BDE8F883A8F1010040065A
:101A0000070E0F2C01DB781CC7B29DF80000844242
:101A100008D1424850F8271005223046FFF7EEFE65
:101A20000120E8E70F223EA13046FFF7E7FE9DF8D0
:101A3000000084420BDA394850F827100422B01C09
:101A4000FFF7DCFE9DF80000001BC4B24DE0781CDF
:101A5000172801DD0020CEE7304A781C52F820100C
:101A60000422B01CFFF7CAFE0F2C0ADA6B460F22C5
:101A700041462846FFF762FF9DF80000001BC4B2F4
:101A800033E0A8F101002A4911F80090B8F1020FE3
:101A900017D1E91705EB91718910A5EB810181B987
:101AA000642195FBF1F201FB125131B94FF4C87179
:101AB00095FBF1F201FB125119B909F1010000F097
:101AC000FF0908F10100C0B280460D2801D14FF096
:101AD00001086B46012241462846FFF72FFFA9EB7C
:101AE00004009DF800100844C4B20A2094FBF0F0F2
:101AF0003030B0720A2094FBF0F100FB114030301E
:101B0000F072012077E70000E000002010010020C3
:101B1000B3F50000492F0008E22F0008280000203C
:101B2000C0EBC1A2B6ACBBB9D3D03F3FCCEC0000F8
:101B300016300008F0B58DB004463022704901A877
:101B400000F0CEFC6069451E642195FBF1F128464A
:101B5000EA1705EB9272C1EBA2014FF4C87295FB34
:101B6000F2F28F186069C11700EB91718910A0EB38
:101B7000810191B96422616991FBF2F302FB1311B7
:101B800031B99200616991FBF2F302FB131121B9A3
:101B90002169022901DD012600E0002640F26D10D6
:101BA00005FB00712069401E01AA52F8200008447C
:101BB000E16808440644072096FBF0F100FB116041
:101BC000A0610DB0F0BD10B501460869801E086126
:101BD000002805DC08690C3008614869401E48612E
:101BE0006423486990FBF3F04A69D31702EB9373BF
:101BF000C0EBA3004FF4C87492FBF4F3034440F22B
:101C00006F14086960430C2490FBF4F01844CB680F
:101C1000034440F26D1402FB04303A4BC01A00EB4F
:101C200040008B6803EBC000C0EB00104B6803EB77
:101C30008000C0EB00100B6803EB800010BD2DE9A5
:101C4000F04107460C463048B7FBF0F6B7FBF0F121
:101C500000FB11784FF4616098FBF0F0A0604FF446
:101C6000616098FBF0F100FB11803C2190FBF1F0EA
:101C700060604FF4616098FBF0F100FB11803C2143
:101C800090FBF1F201FB1200206040F2B27509E016
:101C900005F0030010B94FF4B77001E040F26D1089
:101CA000361A6D1C05F0030010B94FF4B77001E04F
:101CB00040F26D10B042EBDD65616069C11700EB69
:101CC00091718910A0EB810111B91D200F49486065
:101CD000012505E0681E0D4951F82000361A6D1CDB
:101CE000681E0A4951F82000B042F3DD1C2048600C
:101CF0002561701CE0602046FFF71CFFBDE8F08105
:101D0000243000088BFA0A008051010020010020D5
:101D10000EB54FF4C060FEF717FB29208DF80800C0
:101D200001208DF8090000208DF80A0001208DF8AF
:101D30000B0002A8FEF70DFB4FF40030FEF759FC34
:101D40004FF40030009000208DF8040010208DF832
:101D5000050001208DF806006846FEF7D3FB0EBD96
:101D600010B501214FF0C050FEF7DBFF0120FEF758
:101D700002FEFEF757FB0120FEF74CFF00BF61207B
:101D8000FEF797FE0028FAD04FF40070FEF745FFEB
:101D90000120FEF748FFFFF780F8FFF775F80121F3
:101DA0000220FFF715F8FFF76FF849F63F40FFF7FD
:101DB00045F8FFF769F810BD70B50446FFF7D0FF8E
:101DC000FFF762F82046FFF7B5FE2046FFF7FBFE5F
:101DD000A0F5E1452846FFF724F8FFF755F870BD58
:101DE00010B504460420FEF752FB4AF2A551884282
:101DF00011D0CBA000F082FED1A000F07FFE2046E3
:101E0000FFF7DAFFD4A000F079FE4AF2A5510420D2
:101E1000FEF731FB2DE001214FF0C050FEF781FFAE
:101E20000120FEF7A8FDCEA000F068FE0120FEF71D
:101E3000F1FE00BF6120FEF73CFE0028FAD07B20B7
:101E4000FEF737FE18B1C8A000F058FE06E07A2071
:101E5000FEF72FFE10B1CDA000F050FED4A000F090
:101E60004DFEFFF71AF801210220FEF7B1FFFFF740
:101E70000BF8FEF787FF10BD38B504460020009030
:101E80000025D3A000F03AFE00BFDF4800F036FE88
:101E90006946DEA000F036FB40F2B271009888423D
:101EA00004D340F2F6710098884204D9D8A0009972
:101EB00000F024FE06E0DFA0009900F01FFE00986D
:101EC000606100E0E1E700BF00BFE04800F016FEFF
:101ED0006946CEA000F016FB009810B100980C28BF
:101EE00004D9CBA0009900F009FE06E0D8A0009923
:101EF00000F004FE0098206100E0E6E700BF2069E2
:101F00000D2832D2DFE800F0310714080F09100A5B
:101F10000B110C120D0000BF00BF00BF00BF00BFBF
:101F200000BF1F2521E000BF00BF00BF1E251CE031
:101F30006069C11700EB91718910A0EB810191B923
:101F40006422616991FBF2F302FB131131B9920033
:101F5000616991FBF2F302FB131121B92169022996
:101F600001DD1D2500E01C2500BF00BF00BF294684
:101F7000BD4800F0C3FD6946A4A000F0C3FA009874
:101F800010B10098A84204D9A1A0009900F0B6FDB4
:101F900006E0B6A0009900F0B1FD0098E06000E016
:101FA000E5E700BF00BFB74800F0A8FD694697A06D
:101FB00000F0A8FA0098172804D995A0009900F01D
:101FC0009DFD06E0B0A0009900F098FD0098A0608B
:101FD00000E0E8E700BF00BFB14800F08FFD6946B0
:101FE0008AA000F08FFA00983B2804D988A00099B5
:101FF00000F084FD06E0ABA0009900F07FFD0098A2
:10200000606000E0E8E700BF00BFAC4800F076FD8C
:1020100069467EA000F076FA00983B2804D97CA09F
:10202000009900F06BFD06E0A5A0009900F066FDA8
:102030000098206000E0E8E700BF38BDF0B5B9B017
:1020400005460C4605F5E14621463046FFF7F7FD0B
:10205000A06818B9606808B9206818B19E4800687F
:1020600000282CD0227B217CA38A98B207ABFFF7F3
:10207000ACFA9DF81F0000909DF81E309DF81D20C1
:102080009DF81C1095A000F039FD227B217CA38ACD
:1020900098B207ABFFF7BEFB07A999A000F02EFD91
:1020A000227B217CA38A98B207ABFFF796FC18B17C
:1020B00007A993A000F022FD00208749086060690D
:1020C000C01E0C2190FBF1F201FB1200914951F866
:1020D0002070DFF844C2A3695CF8233094E807005D
:1020E000CDE90232CDE90410D4E90310CDE90001B5
:1020F0003B4629468948626900F000FD39B0F0BDD1
:1021000004460CE086480068012808D1FEF780FEEE
:1021100005462146FFF792FF002081490860F1E75C
:102120000D0A0D0A20525443206E6F742079657495
:1021300020636F6E666967757265642E2E2E2E00A1
:102140000D0A0D0A2052544320636F6E666967754D
:102150007265642E2E2E2E003132330A00000000EC
:102160003331320A000000000D0A0D0A20506F774B
:102170006572204F6E205265736574206F636375BE
:10218000727265642E2E2E2E000000000D0A0D0ABC
:102190002045787465726E616C2052657365742099
:1021A0006F636375727265642E2E2E2E0000000020
:1021B0000D0A204E6F206E65656420746F20636F7A
:1021C0006E666967757265205254432E2E2E2E005E
:1021D0000D0A3D3D3D3D3D3D3D3D3D3D3D3D3D3D92
:1021E0003D3D3D3D3D3D3D3D3D3D3DC9E8D6C3CA3C
:1021F000B1BCE43D3D3D3D3D3D3D3D3D3D3D3D3D75
:102200003D3D3D3D3D000000BC320008256400001E
:102210000D0A20C4FACAE4C8EBB5C4CAFDD7D6CAB1
:10222000C73A2564A3ACB2BBB7FBBACFD2AAC7F3F7
:10223000000000000A0D2020C4EAB7DDB1BBC9E8E8
:10224000D6C3CEAA3A2025640A0D00003432000815
:102250000A0D2020D4C2B7DDB1BBC9E8D6C3CEAACF
:102260003A2025640A0D00008C3300080A0D202056
:10227000C8D5C6DAB1BBC9E8D6C3CEAA3A20256410
:102280000A0D0000783200080A0D2020CAB1D6D30A
:10229000B1BBC9E8D6C3CEAA3A2025640A0D000016
:1022A000483300080A0D2020B7D6D6D3B1BBC9E801
:1022B000D6C3CEAA3A2025640A0D000004330008D4
:1022C0000A0D2020C3EBD6D3B1BBC9E8D6C3CEAA32
:1022D0003A2025640A0D0000F00100200D0A20BDFF
:1022E000F1CCECD0C2C0FAA3BA25302E326425302E
:1022F0002E32642C25302E32642C25302E32640090
:102300000D0A20BDF1CCECC5A9C0FAA3BA25730D06
:102310000A0000007401002058010020E431000888
:102320005001002000B585B001210420FEF7ECFC2F
:1023300001218803FEF7E8FC4FF40070ADF81000AF
:1023400018208DF8130003208DF8120004A92248EC
:10235000FEF7B8F94FF48060ADF8100004208DF856
:10236000130004A91C48FEF7ADF94FF4E1300090CA
:102370000020ADF80400ADF80600ADF80800ADF897
:102380000C000C20ADF80A0069461448FEF707FE61
:1023900001211248FEF78FFE05B000BD70B504465E
:1023A0000D46E1B20D48FEF7F3FE00BF80210B4859
:1023B000FEF75CFF0028F9D0204670BD10B504463A
:1023C00000BF20210548FEF751FF0028F9D003483F
:1023D000FEF7E2FE10BD0000000801400038014099
:1023E00008B501211420FEF78FFC0120ADF8000094
:1023F00004208DF8030069461148FEF763F94FF495
:102400000050ADF8000004208DF8030069460D4827
:10241000FEF758F908BD70B504460D46294620461A
:10242000FEF7E3F9012808D100BF29462046FEF750
:10243000DCF90128F9D0012070BD0020FCE7000084
:10244000000801400010014008B501210420FEF7FA
:102450005BFC4FF48070ADF8000010208DF8030095
:1024600003208DF8020069460448FEF72BF94FF46B
:1024700080710248FEF7D5F908BD00000008014050
:1024800008B501210820FEF73FFC2020ADF8000030
:1024900010208DF8030003208DF8020069460F48D4
:1024A000FEF710F90120ADF8000069460B48FEF771
:1024B00009F90220ADF8000069460848FEF702F964
:1024C00020210648FEF7ABF901210448FEF7A7F9E1
:1024D00002210248FEF7A3F908BD0000000C0140EC
:1024E00040EA01039B0703D009E008C9121F08C096
:1024F000042AFAD203E011F8013B00F8013B521E16
:10250000F9D270470FB400B589B00BA800906A46A5
:1025100003480A9900F0D0F809B05DF814FB0000F8
:10252000F40100202DE9FF5F1D464FF0FF3BD5E988
:10253000014691465F464FF00008A9697F1C01984B
:102540008847296A824688470028F6D1BAF1FF3FBA
:102550000CD024F4C064002E19DD600614D5BAF145
:102560002B0F09D0BAF12D0F0ED103E0584604B05D
:10257000BDE8F09F44F48064A9697F1C01988847F6
:10258000761E8246002E02DDBAF1300F03D0B9F17B
:10259000000F26D032E0A969761E44F400747F1C37
:1025A000019888478246002E05DDBAF1780F06D0E3
:1025B000BAF1580F03D0B9F1000F10D01EE0B9F1F5
:1025C000000F02D0B9F1100F18D1A969761E24F4BA
:1025D00000747F1C019888478246102002E0082082
:1025E00000E00A20814609E008FB0908A969761E77
:1025F00044F400747F1C019888478246002E05DD54
:102600004946504600F04AF80028EDDAE969019899
:102610008847A00502D46FF00100A8E7E00725D1A4
:10262000600613D5600502D5C8F1000000E0404601
:1026300029680A1D2A600968220501D5087015E07D
:10264000220701D5088011E008600FE02868011D0D
:1026500029600068210502D580F8008006E0210786
:1026600002D5A0F8008001E0C0F8008038467EE77F
:1026700030B50B46014600202022012409E021FA52
:1026800002F59D4205D303FA02F5491B04FA02F54F
:102690002844151EA2F10102F1DC30BD3A2800D217
:1026A000303820F02002412A01D3A2F137008842BD
:1026B00001D34FF0FF307047024B9361024BD3615F
:1026C00000F032B8BD2300080D270008064C074D66
:1026D00006E0E06840F0010394E8070098471034F2
:1026E000AC42F6D3FDF728FD98340008B834000852
:1026F000094910B508784C1C18B1401E0870205CC0
:1027000010BD00210720ABBE207010BD0249087823
:10271000421C0A7070470000FC010020026811444E
:102720001378016018467047D1600449516104492B
:10273000116200211161114600F00AB81D2700083E
:1027400045270008C0B24FF4F05100F097B90000DF
:102750002DE9F34F8BB04FF0000801F10C000C464F
:102760004FF0010B46460DF1080A01906269012104
:1027700001989047051E2DD0252D2CD0216A884721
:10278000C0B16269012101989047216A88470028F9
:10279000F7D1411E62690198904700E0761CA1695B
:1027A0000B988847216A88470028F7D1E1690B9880
:1027B0008847DBE7A1690B9888470746A84201D103
:1027C000761CD3E7E1690B9888477F1C02D1B8F1EA
:1027D000000F6FD046E1002762693D4639460198F7
:1027E00090472A2804D16269012101989047012568
:1027F000DFF884926269012101989047A0F13001CD
:102800000A290AD24F45E5DC07EB870100EB4107B7
:10281000303FDFD445F01005ECE7E90601D46FF056
:1028200000476C280AD04C2814D0682815D06A2894
:102830000DD074281CD07A281AD01DE062690121BD
:10284000019890476C2802D045F0040514E045F04B
:1028500002050DE045F020050AE0626901210198BA
:102860009047682802D045F0080505E045F400656A
:102870006269012101989047C4E9015765283DD05C
:1028800019DC58287AD00CDC452837D004DC252800
:1028900026D0412831D131E046282FD047282CD1ED
:1028A0002CE05B2877D0612828D063287CD064286E
:1028B00023D15AE0D0E06F2848D008DC66281DD02C
:1028C00067281BD0692821D06E2816D127E07028F0
:1028D00045D0732868D0752847D078280DD14DE0B1
:1028E000A1690B988847054625283FF469AFE1693F
:1028F0000B9888476D1C3FF46AAFB3E023466A46E5
:102900006FF001000B99AFF300809EE045F04000AE
:102910006060A80723464FF0000236D43EE0E80787
:102920007FF447AF2068011D21600068290501D5AB
:1029300006701BE7290701D5068017E7A90703D50D
:10294000F117C0E9006111E706600FE745F04000AC
:102950006060A80723464FF0080216D41EE040F638
:102960000E0125EA0100606016E045F0400060605D
:10297000A80723464FF00A0207D40FE045F04000B5
:102980006060A80708D5234610226FF001000B995C
:10299000AFF3008059E007E0234610226FF00100FA
:1029A0000B99FFF7BFFD50E04FF000094F464B4633
:1029B000632802D05B2806D040E0E80601D401205D
:1029C000A06001273AE062690121019890475E28E2
:1029D00005D14FF001096269494601989047216984
:1029E00039B900210A46534643F82120491C0829D9
:1029F000FADBB0B3216969B9C11700EBD162531199
:102A00000AEB830122F01F02821A01200B6890401A
:102A100003430B6062690121019890475D28E8D16A
:102A2000B9F1000F09D00020514651F82020D243BF
:102A300041F82020401C0828F7DB02AB2246009713
:102A40006FF001000B99AFF3008000280CDA401CF6
:102A500008D1BBF1000F05D04FF0FF300DB0BDE83D
:102A6000F08FFFE74046F9E7E90701D108F10108D7
:102A700006444FF0000B79E6CCCCCC0C7F2801D972
:102A8000002208E0064A02EB5002C007127800D18B
:102A9000120902F00F020120904008407047000028
:102AA0005430000870B58C1810F8015B15F007035E
:102AB00001D110F8013B2A1106D110F8012B03E0D7
:102AC00010F8016B01F8016B5B1EF9D12B0705D4DF
:102AD0000023521E0DD401F8013BFAE710F8013B28
:102AE000CB1A921C03E013F8015B01F8015B521E44
:102AF000F9D5A142D8D3002070BD00000FB4054B1A
:102B000010B503A9044A029800F018F810BC5DF84B
:102B100014FB00009D230008F801002002E008C813
:102B2000121F08C1002AFAD170477047002001E047
:102B300001C1121F002AFBD1704700002DE9FF4F91
:102B40008BB09A460F460546002606E025280BD096
:102B500052460D9990476D1C761C28780028F5D1B7
:102B60000FB03046BDE8F08F0024A0460122604936
:102B700000E0044315F8013F203B02FA03F008424D
:102B8000F7D128782E2817D115F8010F44F0040446
:102B90002A280ED06FF02F022878A0F130010929E1
:102BA0000AD808EB880102EB410100EB01086D1C1B
:102BB000F2E757F8048B6D1C287869283ED006DCB4
:102BC0000028CDD063280BD0642804D136E07328C8
:102BD00010D075284BD052460D999047761C85E051
:102BE00017F8040B8DF8000000208DF80100E9466D
:102BF000012003E057F8049B4FF0FF3061074FF0CE
:102C0000000401D40AE0641C44450DDA8442FADB76
:102C100019F804100029F6D106E0641C8442FCDB9C
:102C200019F804100029F8D1264404E019F8010B22
:102C300052460D999047641EF8D257E001CF4FF0ED
:102C40000A0B002802DA40422D2102E0210504D5BA
:102C50002B218DF82410012103E0E10705D020216C
:102C6000F7E70DF1200908910CE00021F9E701CF09
:102C70004FF00A0BF9E75946FFF7FAFC01F1300271
:102C800009F8012D0028F6D1ADEB090000F1200B69
:102C9000600701D44FF00108D84502DDA8EB0B0016
:102CA00000E000208046002406E009A85246005DAE
:102CB0000D999047641C761C08988442F5DB04E06B
:102CC000302052460D999047761CB8F10001A8F1CA
:102CD0000108F5DC05E019F8010B52460D99904703
:102CE000761CBBF10001ABF1010BF4DC6D1C34E789
:102CF0000928010004AE530A57485526BD0D265039
:102D00000D954446AAB9056A4D09AD4224AEB604F4
:102D1000AE4A6A4DBE0A4D520D25465D52BA0B545D
:102D20004E0D6A43296D37095B4B749BC104975460
:102D30000A4B485B25BC06A55006D4454ADAB802C2
:102D4000B64D0957422497B704974A664B3E0D4A41
:102D5000510EA54656D4BA05AD4E02B644393738A1
:102D6000092E4B7C96BF0C95530D4A486DA53B0B25
:102D7000554F056A454AADB9025D4D092D422C9566
:102D8000B60A954A7B4ABD06CA510B5546555ABBF1
:102D900004DA4E0A5B43352BB8052B4C8A953F0E5F
:102DA000955206AA487AD53C0AB54F04B6454A570B
:102DB000390A574D0526423E93350D954975AABEF1
:102DC000056A51096D4654AEBB04AD4F0A4D434DE3
:102DD00026B70D254B8D52BF0B54520B6A47696DB8
:102DE0003C095B50049B454A4BB90A4B4DAB25C28D
:102DF00006A55406D4496ADA3D0AB6510937465445
:102E000097BB04974F064B4436A5370EA54A86B2AA
:102E1000BF05AC530AB6475936BC092E500C96452F
:102E20004D4AB80D4A4C0DA54125AAB6056A497A06
:102E3000ADBD025D52092D475C95BA0A954E0B4A0D
:102E4000434B55370AD54A955ABF04BA530A5B48D3
:102E5000652BBC052B500A9345474AB906AA4C0A74
:102E6000D54124DAB604B64A69573D0A4E510D26BB
:102E7000465E933A0D534D05AA4336B537096D4B5F
:102E8000B4AEBF04AD530A4D486D25BC0D254F0DA2
:102E900052445DAA380B5A4C056D4124ADB6049BD3
:102EA0004A7A4BBE0A4B510AA5465B52BA06D24E2D
:102EB0000ADA42355B3709374B8497C104975306CA
:102EC0004B4866A53C0EA54F06B2444AB6380AAE3A
:102ED0004C092E423C97350C96497D4ABD0D4A510E
:102EE0000DA54555AABA056A4E0A6D43452EB7058C
:102EF0002D4B8A95BF0A95530B4A476B553B0AD514
:102F00004F055A454A5D380A5B4C052B423A93B649
:102F10000693497729BD06AA510AD54654DABA0460
:102F2000B64E0A57434527380D264A8E933E0D521A
:102F3000520DAA4766B53B056D4F04AE454A4EB9E2
:102F40000A4D4C0D15412D92B54EA6999CA2988024
:102F500000180010244EA6999CA298808218001098
:102F6000244EA6D99EA2988082180010044EE6D95D
:102F70009EA6A88082180010000FE6D9BEA69888E9
:102F800082188000000FEFD9BEA6998C829880002D
:102F9000000FEFDBBEA6999CA2988000180FEFDB14
:102FA000BEA6999CA2988000180FEFDBBEA2998C58
:102FB000A0988082180BEFDBBEA6998CA298808225
:102FC000180FEFDBBEE6D99EA2988082180FEFFBA8
:102FD000BFE6D99EA6988082180FFFFFFCEFD9BEEE
:102FE000A61806140413061505140615061507176A
:102FF00008170817081808160716001F3B5A789775
:10300000B5D4F300110130014E01000303060104A1
:103010000602050003051F1C1F1E1F1E1F1F1E1F6B
:103020001E1F0000000000001F0000003B00000009
:103030005A0000007800000097000000B500000072
:10304000D4000000F3000000110100003001000076
:103050004E010000DDDDDDDDDCBBBBDDDDDDDDDD0A
:10306000DDDDDDDD988888888888888877777777C0
:10307000778888888555555666666666666666668C
:103080006668888883333332222222222222222237
:103090002228888DB6A10000BAA50000D8A500009E
:1030A000D0A1D1A900000000B4F3D1A90000000014
:1030B000C1A2B6AC00000000B6AC0000D0A1BAAE10
:1030C00000000000B4F3BAAE00000000C3AE000080
:1030D000CAAE0000D3EACBAE00000000C0B00000D2
:1030E000CEB40000CBAABDB500000000BAAEC2B697
:1030F00000000000B0D7C2B600000000C1A2B4BA00
:1031000000000000BCBA0000D2BB0000B3BD00004C
:10311000D0C10000B6ACD6C100000000CFC4D6C1FB
:1031200000000000CBC40000C1A2CFC4000000001A
:10313000BEC50000CBC80000C8C90000B0CB00006D
:10314000D3CF0000D2D20000D7D30000B4BAB7D694
:1031500000000000C7EFB7D600000000C3A2D6D61B
:1031600000000000BCD70000BEAAD5DD00000000B2
:10317000C6DF0000CEE50000CEE70000D0E700008B
:10318000C9EA0000B9C8D3EA00000000CEEC000094
:10319000D0A1CAEE00000000B4A6CAEE00000000F4
:1031A000B4F3CAEE00000000B9EF0000C1A2C7EFFF
:1031B00000000000B3F30000B3F50000C7E5C3F75B
:1031C00000000000C1F90000CFC4C2FA00000000F6
:1031D000D2FA0000B1FB0000B8FD0000C8FD0000FD
:1031E000B6FE000020554E4958CAB1BCE4B4C12017
:1031F0003D20256420B5B1C7B0CAB1BCE4CEAA3A1F
:10320000202564C4EA282573C4EA29202564D4C291
:10321000202564C8D52028D0C7C6DA2573292020E8
:1032200025302E32643A25302E32643A25302E3243
:10323000640D00000D0A2020C7EBCAE4C8EBD4C21D
:10324000B7DD28506C6561736520536574204D6F40
:103250006E746873293AB7B6CEA75B317E31325DA2
:10326000A3ACCAE4C8EBD7D6B7FBBAF3C7EBBCD361
:10327000BBD8B3B53A0000000D0A2020C7EBCAE462
:10328000C8EBCAB1D6D328506C656173652053650D
:103290007420486F757273292CB7B6CEA75B307E49
:1032A00032335DA3ACCAE4C8EBD7D6B7FBBAF3C7D9
:1032B000EBBCD3BBD8B3B53A000000000D0A202008
:1032C000C7EBCAE4C8EBC4EAB7DD28506C6561738C
:1032D0006520536574205965617273292CB7B6CE89
:1032E000A75B313937307E323033385DA3ACCAE466
:1032F000C8EBD7D6B7FBBAF3C7EBBCD3BBD8B3B5D3
:103300003A0000000D0A2020C7EBCAE4C8EBC3EB6B
:10331000D6D328506C65617365205365742053655E
:10332000636F6E6473292CB7B6CEA75B307E3539D8
:103330005DA3ACCAE4C8EBD7D6B7FBBAF3C7EBBC06
:10334000D3BBD8B3B53A00000D0A2020C7EBCAE4BE
:10335000C8EBB7D6D6D328506C656173652053652A
:1033600074204D696E75746573292CB7B6CEA75B52
:10337000307E35395DA3ACCAE4C8EBD7D6B7FBBA0B
:10338000F3C7EBBCD3BBD8B3B53A00000D0A20207D
:10339000C7EBCAE4C8EBC8D5C6DA28506C656173C0
:1033A0006520536574204D6F6E746873292CB7B611
:1033B000CEA75B317E25645DA3ACCAE4C8EBD7D64B
:1033C000B7FBBAF3C7EBBCD3BBD8B3B53A00000028
:1033D000536E616B65000000486F727365000000FA
:1033E00050696700446F6700447261676F6E000048
:1033F0005469676572000000526F6F7374657200E4
:1034000052617400476F6174000000005261626293
:10341000697400004F7800004672696461790000A9
:103420004D6F6E646179000053756E6461790000C0
:103430005361747572646179000000005765646EB1
:103440006573646179000000547565736461790087
:103450005468757273646179000000004D6F6E6B83
:1034600065790000BBA20000C5A30000BCA6000057
:10347000B9B70000CDC30000C8D50000C9DF000007
:10348000C2ED0000D6ED0000BAEF0000D1F200005E
:10349000CAF30000C1FA0000B834000800000020A0
:1034A00000020000A42A0008F435000800020020F1
:1034B000000400002C2B00081184A24A04680901B2
:1034C000020304060708090C69101702040608BC69
:1034D000301B08C4041AFC041AD4041368311B08F6
:1034E0004C041ABC041A84041A28041AC8041A5C6E
:1034F000041A1C041A90041AA0041AAC041A9804A2
:103500001AF4341A54081AEC081AE4041AB0041A0B
:10351000A0041AA8041A14181A64041A44041AD429
:10352000041A94141A8C081A04041AD8041A1004E1
:103530001A38041AA8041A48041AB4041AD0041A2F
:10354000CC281A0C081A34041A78041AE0101A80CD
:10355000081A40042A7C7819102A081819041ADC61
:10356000041A24041A74041AC4041A70041A3C04B9
:103570002A304C19281AB8042ADC0859102A9C1041
:10358000190C321F321C2908DA1E08091214810B8B
:103590001878347C1A841C1A90041A68041A64047B
:1035A0001A74041A94041A7C041A80041A8C041ADB
:1035B00088041A6C041A70041A28041A20041A4881
:1035C000041A3C041A50041A18041A300413E03385
:1035D000120819081A14041AF00C1A0C081AE80830
:1035E0001AD0041AD8041A04101A5C041AF80C1A17
:0435F000E404F201FC
:0400000508000131BD
:00000001FF
